{
    "_format": "hh-sol-artifact-1",
    "contractName": "Web3RSVP",
    "sourceName": "contracts/Web3RSVP.sol",
    "abi": [
        {
            "anonymous": false,
            "inputs": [
                {
                    "indexed": false,
                    "internalType": "bytes32",
                    "name": "eventId",
                    "type": "bytes32"
                },
                {
                    "indexed": false,
                    "internalType": "address",
                    "name": "attendeeAddress",
                    "type": "address"
                }
            ],
            "name": "ConfirmedAttendee",
            "type": "event"
        },
        {
            "anonymous": false,
            "inputs": [
                {
                    "indexed": false,
                    "internalType": "bytes32",
                    "name": "eventId",
                    "type": "bytes32"
                }
            ],
            "name": "DepositsPaidOut",
            "type": "event"
        },
        {
            "anonymous": false,
            "inputs": [
                {
                    "indexed": false,
                    "internalType": "bytes32",
                    "name": "eventId",
                    "type": "bytes32"
                },
                {
                    "indexed": false,
                    "internalType": "address",
                    "name": "creatorAddress",
                    "type": "address"
                },
                {
                    "indexed": false,
                    "internalType": "uint256",
                    "name": "eventTimestamp",
                    "type": "uint256"
                },
                {
                    "indexed": false,
                    "internalType": "uint256",
                    "name": "maxCapacity",
                    "type": "uint256"
                },
                {
                    "indexed": false,
                    "internalType": "uint256",
                    "name": "deposit",
                    "type": "uint256"
                },
                {
                    "indexed": false,
                    "internalType": "string",
                    "name": "eventDataCID",
                    "type": "string"
                }
            ],
            "name": "NewEventCreated",
            "type": "event"
        },
        {
            "anonymous": false,
            "inputs": [
                {
                    "indexed": false,
                    "internalType": "bytes32",
                    "name": "eventId",
                    "type": "bytes32"
                },
                {
                    "indexed": false,
                    "internalType": "address",
                    "name": "attendeeAddress",
                    "type": "address"
                }
            ],
            "name": "NewRSVP",
            "type": "event"
        },
        {
            "inputs": [
                {
                    "internalType": "bytes32",
                    "name": "eventId",
                    "type": "bytes32"
                }
            ],
            "name": "confirmAllAttendees",
            "outputs": [],
            "stateMutability": "nonpayable",
            "type": "function"
        },
        {
            "inputs": [
                {
                    "internalType": "bytes32",
                    "name": "eventId",
                    "type": "bytes32"
                },
                {
                    "internalType": "address",
                    "name": "attendee",
                    "type": "address"
                }
            ],
            "name": "confirmAttendee",
            "outputs": [],
            "stateMutability": "nonpayable",
            "type": "function"
        },
        {
            "inputs": [
                {
                    "internalType": "uint256",
                    "name": "eventTimestamp",
                    "type": "uint256"
                },
                {
                    "internalType": "uint256",
                    "name": "deposit",
                    "type": "uint256"
                },
                {
                    "internalType": "uint256",
                    "name": "maxCapacity",
                    "type": "uint256"
                },
                {
                    "internalType": "string",
                    "name": "eventDataCID",
                    "type": "string"
                }
            ],
            "name": "createNewEvent",
            "outputs": [],
            "stateMutability": "nonpayable",
            "type": "function"
        },
        {
            "inputs": [
                {
                    "internalType": "bytes32",
                    "name": "eventId",
                    "type": "bytes32"
                }
            ],
            "name": "createNewRSVP",
            "outputs": [],
            "stateMutability": "payable",
            "type": "function"
        },
        {
            "inputs": [
                {
                    "internalType": "bytes32",
                    "name": "",
                    "type": "bytes32"
                }
            ],
            "name": "idToEvent",
            "outputs": [
                {
                    "internalType": "bytes32",
                    "name": "eventId",
                    "type": "bytes32"
                },
                {
                    "internalType": "string",
                    "name": "eventDataCID",
                    "type": "string"
                },
                {
                    "internalType": "address",
                    "name": "eventOwner",
                    "type": "address"
                },
                {
                    "internalType": "uint256",
                    "name": "eventTimestamp",
                    "type": "uint256"
                },
                {
                    "internalType": "uint256",
                    "name": "deposit",
                    "type": "uint256"
                },
                {
                    "internalType": "uint256",
                    "name": "maxCapacity",
                    "type": "uint256"
                },
                {
                    "internalType": "bool",
                    "name": "paidOut",
                    "type": "bool"
                }
            ],
            "stateMutability": "view",
            "type": "function"
        },
        {
            "inputs": [
                {
                    "internalType": "bytes32",
                    "name": "eventId",
                    "type": "bytes32"
                }
            ],
            "name": "withdrawUnclaimedDeposits",
            "outputs": [],
            "stateMutability": "nonpayable",
            "type": "function"
        }
    ],
    "bytecode": "0x608060405234801561001057600080fd5b50611d99806100206000396000f3fe6080604052600436106100545760003560e01c806292098c1461005957806317f0165a146100825780636dcdf2cd1461009e57806379747571146100c7578063909ef021146100f0578063acdbe01214610133575b600080fd5b34801561006557600080fd5b50610080600480360381019061007b919061114c565b61015c565b005b61009c6004803603810190610097919061120a565b610378565b005b3480156100aa57600080fd5b506100c560048036038101906100c09190611295565b6105e5565b005b3480156100d357600080fd5b506100ee60048036038101906100e9919061120a565b610abe565b005b3480156100fc57600080fd5b506101176004803603810190610112919061120a565b610d61565b60405161012a97969594939291906113b6565b60405180910390f35b34801561013f57600080fd5b5061015a6004803603810190610155919061120a565b610e58565b005b60003330878787604051602001610177959493929190611495565b60405160208183030381529060405280519060200120905060608060405180610120016040528084815260200186868080601f016020809104026020016040519081016040528093929190818152602001838380828437600081840152601f19601f8201169050808301925050505050505081526020013373ffffffffffffffffffffffffffffffffffffffff16815260200189815260200188815260200187815260200183815260200182815260200160001515815250600080858152602001908152602001600020600082015181600001556020820151816001019080519060200190610267929190610f7a565b5060408201518160020160006101000a81548173ffffffffffffffffffffffffffffffffffffffff021916908373ffffffffffffffffffffffffffffffffffffffff160217905550606082015181600301556080820151816004015560a0820151816005015560c08201518160060190805190602001906102e9929190611000565b5060e0820151816007019080519060200190610306929190611000565b506101008201518160080160006101000a81548160ff0219169083151502179055509050507f2553138c3f9c9008f266dbdbe9fc64f5b71e098d06ef714a190a65a8b9fc6bf383338a898b8a8a6040516103669796959493929190611530565b60405180910390a15050505050505050565b60008060008381526020019081526020016000209050806004015434146103d4576040517f08c379a00000000000000000000000000000000000000000000000000000000081526004016103cb906115e6565b60405180910390fd5b806003015442111561041b576040517f08c379a000000000000000000000000000000000000000000000000000000000815260040161041290611652565b60405180910390fd5b8060050154816006018054905010610468576040517f08c379a000000000000000000000000000000000000000000000000000000000815260040161045f906116e4565b60405180910390fd5b60005b81600601805490508160ff161015610542573373ffffffffffffffffffffffffffffffffffffffff16826006018260ff16815481106104ad576104ac611704565b5b9060005260206000200160009054906101000a900473ffffffffffffffffffffffffffffffffffffffff1673ffffffffffffffffffffffffffffffffffffffff16141561052f576040517f08c379a00000000000000000000000000000000000000000000000000000000081526004016105269061177f565b60405180910390fd5b808061053a906117db565b91505061046b565b5080600601339080600181540180825580915050600190039060005260206000200160009091909190916101000a81548173ffffffffffffffffffffffffffffffffffffffff021916908373ffffffffffffffffffffffffffffffffffffffff1602179055507fb79f4240bbdd272d98e02a5db7f0cf156e5fc000961c517670a26eeeec63ed9082336040516105d9929190611805565b60405180910390a15050565b600080600084815260200190815260200160002090508060020160009054906101000a900473ffffffffffffffffffffffffffffffffffffffff1673ffffffffffffffffffffffffffffffffffffffff163373ffffffffffffffffffffffffffffffffffffffff161461068d576040517f08c379a00000000000000000000000000000000000000000000000000000000081526004016106849061187a565b60405180910390fd5b600080600090505b82600601805490508160ff161015610778578373ffffffffffffffffffffffffffffffffffffffff16836006018260ff16815481106106d7576106d6611704565b5b9060005260206000200160009054906101000a900473ffffffffffffffffffffffffffffffffffffffff1673ffffffffffffffffffffffffffffffffffffffff16141561076557826006018160ff168154811061073757610736611704565b5b9060005260206000200160009054906101000a900473ffffffffffffffffffffffffffffffffffffffff1691505b8080610770906117db565b915050610695565b508273ffffffffffffffffffffffffffffffffffffffff168173ffffffffffffffffffffffffffffffffffffffff16146107e7576040517f08c379a00000000000000000000000000000000000000000000000000000000081526004016107de906118e6565b60405180910390fd5b60005b82600701805490508160ff1610156108c1578373ffffffffffffffffffffffffffffffffffffffff16836007018260ff168154811061082c5761082b611704565b5b9060005260206000200160009054906101000a900473ffffffffffffffffffffffffffffffffffffffff1673ffffffffffffffffffffffffffffffffffffffff1614156108ae576040517f08c379a00000000000000000000000000000000000000000000000000000000081526004016108a590611952565b60405180910390fd5b80806108b9906117db565b9150506107ea565b50600015158260080160009054906101000a900460ff1615151461091a576040517f08c379a0000000000000000000000000000000000000000000000000000000008152600401610911906119be565b60405180910390fd5b81600701839080600181540180825580915050600190039060005260206000200160009091909190916101000a81548173ffffffffffffffffffffffffffffffffffffffff021916908373ffffffffffffffffffffffffffffffffffffffff16021790555060008373ffffffffffffffffffffffffffffffffffffffff1683600401546040516109a990611a0f565b60006040518083038185875af1925050503d80600081146109e6576040519150601f19603f3d011682016040523d82523d6000602084013e6109eb565b606091505b5050905080610a3e5782600701805480610a0857610a07611a24565b5b6001900381819060005260206000200160006101000a81549073ffffffffffffffffffffffffffffffffffffffff021916905590555b80610a7e576040517f08c379a0000000000000000000000000000000000000000000000000000000008152600401610a7590611a9f565b60405180910390fd5b7ff8d1583a733d83bdd3ef5464129d0a95a36d62b382d31c6d0467a61f4264381b8585604051610aaf929190611805565b60405180910390a15050505050565b600080600083815260200190815260200160002090508060080160009054906101000a900460ff1615610b26576040517f08c379a0000000000000000000000000000000000000000000000000000000008152600401610b1d90611b0b565b60405180910390fd5b62093a808160030154610b399190611b2b565b421015610b7b576040517f08c379a0000000000000000000000000000000000000000000000000000000008152600401610b7290611bcd565b60405180910390fd5b8060020160009054906101000a900473ffffffffffffffffffffffffffffffffffffffff1673ffffffffffffffffffffffffffffffffffffffff163373ffffffffffffffffffffffffffffffffffffffff1614610c0d576040517f08c379a0000000000000000000000000000000000000000000000000000000008152600401610c0490611c39565b60405180910390fd5b600081600701805490508260060180549050610c299190611c59565b90506000826004015482610c3d9190611c8d565b905060018360080160006101000a81548160ff02191690831515021790555060003373ffffffffffffffffffffffffffffffffffffffff1682604051610c8290611a0f565b60006040518083038185875af1925050503d8060008114610cbf576040519150601f19603f3d011682016040523d82523d6000602084013e610cc4565b606091505b5050905080610ce357600015158460080160009054906101000a905050505b80610d23576040517f08c379a0000000000000000000000000000000000000000000000000000000008152600401610d1a90611a9f565b60405180910390fd5b7f393073ea1365f611c3d2f240c992960d2b99dc81715555d3fc40fc55ba80af9c85604051610d529190611ce7565b60405180910390a15050505050565b6000602052806000526040600020600091509050806000015490806001018054610d8a90611d31565b80601f0160208091040260200160405190810160405280929190818152602001828054610db690611d31565b8015610e035780601f10610dd857610100808354040283529160200191610e03565b820191906000526020600020905b815481529060010190602001808311610de657829003601f168201915b5050505050908060020160009054906101000a900473ffffffffffffffffffffffffffffffffffffffff16908060030154908060040154908060050154908060080160009054906101000a900460ff16905087565b600080600083815260200190815260200160002090508060020160009054906101000a900473ffffffffffffffffffffffffffffffffffffffff1673ffffffffffffffffffffffffffffffffffffffff163373ffffffffffffffffffffffffffffffffffffffff1614610f00576040517f08c379a0000000000000000000000000000000000000000000000000000000008152600401610ef79061187a565b60405180910390fd5b60005b81600601805490508160ff161015610f7557610f6283836006018360ff1681548110610f3257610f31611704565b5b9060005260206000200160009054906101000a900473ffffffffffffffffffffffffffffffffffffffff166105e5565b8080610f6d906117db565b915050610f03565b505050565b828054610f8690611d31565b90600052602060002090601f016020900481019282610fa85760008555610fef565b82601f10610fc157805160ff1916838001178555610fef565b82800160010185558215610fef579182015b82811115610fee578251825591602001919060010190610fd3565b5b509050610ffc919061108a565b5090565b828054828255906000526020600020908101928215611079579160200282015b828111156110785782518260006101000a81548173ffffffffffffffffffffffffffffffffffffffff021916908373ffffffffffffffffffffffffffffffffffffffff16021790555091602001919060010190611020565b5b509050611086919061108a565b5090565b5b808211156110a357600081600090555060010161108b565b5090565b600080fd5b600080fd5b6000819050919050565b6110c4816110b1565b81146110cf57600080fd5b50565b6000813590506110e1816110bb565b92915050565b600080fd5b600080fd5b600080fd5b60008083601f84011261110c5761110b6110e7565b5b8235905067ffffffffffffffff811115611129576111286110ec565b5b602083019150836001820283011115611145576111446110f1565b5b9250929050565b600080600080600060808688031215611168576111676110a7565b5b6000611176888289016110d2565b9550506020611187888289016110d2565b9450506040611198888289016110d2565b935050606086013567ffffffffffffffff8111156111b9576111b86110ac565b5b6111c5888289016110f6565b92509250509295509295909350565b6000819050919050565b6111e7816111d4565b81146111f257600080fd5b50565b600081359050611204816111de565b92915050565b6000602082840312156112205761121f6110a7565b5b600061122e848285016111f5565b91505092915050565b600073ffffffffffffffffffffffffffffffffffffffff82169050919050565b600061126282611237565b9050919050565b61127281611257565b811461127d57600080fd5b50565b60008135905061128f81611269565b92915050565b600080604083850312156112ac576112ab6110a7565b5b60006112ba858286016111f5565b92505060206112cb85828601611280565b9150509250929050565b6112de816111d4565b82525050565b600081519050919050565b600082825260208201905092915050565b60005b8381101561131e578082015181840152602081019050611303565b8381111561132d576000848401525b50505050565b6000601f19601f8301169050919050565b600061134f826112e4565b61135981856112ef565b9350611369818560208601611300565b61137281611333565b840191505092915050565b61138681611257565b82525050565b611395816110b1565b82525050565b60008115159050919050565b6113b08161139b565b82525050565b600060e0820190506113cb600083018a6112d5565b81810360208301526113dd8189611344565b90506113ec604083018861137d565b6113f9606083018761138c565b611406608083018661138c565b61141360a083018561138c565b61142060c08301846113a7565b98975050505050505050565b60008160601b9050919050565b60006114448261142c565b9050919050565b600061145682611439565b9050919050565b61146e61146982611257565b61144b565b82525050565b6000819050919050565b61148f61148a826110b1565b611474565b82525050565b60006114a1828861145d565b6014820191506114b1828761145d565b6014820191506114c1828661147e565b6020820191506114d1828561147e565b6020820191506114e1828461147e565b6020820191508190509695505050505050565b82818337600083830152505050565b600061150f83856112ef565b935061151c8385846114f4565b61152583611333565b840190509392505050565b600060c082019050611545600083018a6112d5565b611552602083018961137d565b61155f604083018861138c565b61156c606083018761138c565b611579608083018661138c565b81810360a083015261158c818486611503565b905098975050505050505050565b7f4e6f7420656e6f756768206465706f7369740000000000000000000000000000600082015250565b60006115d06012836112ef565b91506115db8261159a565b602082019050919050565b600060208201905081810360008301526115ff816115c3565b9050919050565b7f416c72656164792068617070656e656400000000000000000000000000000000600082015250565b600061163c6010836112ef565b915061164782611606565b602082019050919050565b6000602082019050818103600083015261166b8161162f565b9050919050565b7f54686973206576656e74206861732072656163686564206d6178696d756d206360008201527f6170616369747900000000000000000000000000000000000000000000000000602082015250565b60006116ce6027836112ef565b91506116d982611672565b604082019050919050565b600060208201905081810360008301526116fd816116c1565b9050919050565b7f4e487b7100000000000000000000000000000000000000000000000000000000600052603260045260246000fd5b7f416c726561647920636f6e6669726d6564000000000000000000000000000000600082015250565b60006117696011836112ef565b915061177482611733565b602082019050919050565b600060208201905081810360008301526117988161175c565b9050919050565b7f4e487b7100000000000000000000000000000000000000000000000000000000600052601160045260246000fd5b600060ff82169050919050565b60006117e6826117ce565b915060ff8214156117fa576117f961179f565b5b600182019050919050565b600060408201905061181a60008301856112d5565b611827602083018461137d565b9392505050565b7f4e6f7420617574686f72697a6564000000000000000000000000000000000000600082015250565b6000611864600e836112ef565b915061186f8261182e565b602082019050919050565b6000602082019050818103600083015261189381611857565b9050919050565b7f4e6f205253565020746f20636f6e6669726d0000000000000000000000000000600082015250565b60006118d06012836112ef565b91506118db8261189a565b602082019050919050565b600060208201905081810360008301526118ff816118c3565b9050919050565b7f416c726561647920636c61696d65640000000000000000000000000000000000600082015250565b600061193c600f836112ef565b915061194782611906565b602082019050919050565b6000602082019050818103600083015261196b8161192f565b9050919050565b7f416c72656164792070616964206f757400000000000000000000000000000000600082015250565b60006119a86010836112ef565b91506119b382611972565b602082019050919050565b600060208201905081810360008301526119d78161199b565b9050919050565b600081905092915050565b50565b60006119f96000836119de565b9150611a04826119e9565b600082019050919050565b6000611a1a826119ec565b9150819050919050565b7f4e487b7100000000000000000000000000000000000000000000000000000000600052603160045260246000fd5b7f4661696c656420746f2073656e64206574686572000000000000000000000000600082015250565b6000611a896014836112ef565b9150611a9482611a53565b602082019050919050565b60006020820190508181036000830152611ab881611a7c565b9050919050565b7f416c726561647920706961640000000000000000000000000000000000000000600082015250565b6000611af5600c836112ef565b9150611b0082611abf565b602082019050919050565b60006020820190508181036000830152611b2481611ae8565b9050919050565b6000611b36826110b1565b9150611b41836110b1565b9250827fffffffffffffffffffffffffffffffffffffffffffffffffffffffffffffffff03821115611b7657611b7561179f565b5b828201905092915050565b7f546f6f206561726c790000000000000000000000000000000000000000000000600082015250565b6000611bb76009836112ef565b9150611bc282611b81565b602082019050919050565b60006020820190508181036000830152611be681611baa565b9050919050565b7f4d757374206265206576656e74206f776e657200000000000000000000000000600082015250565b6000611c236013836112ef565b9150611c2e82611bed565b602082019050919050565b60006020820190508181036000830152611c5281611c16565b9050919050565b6000611c64826110b1565b9150611c6f836110b1565b925082821015611c8257611c8161179f565b5b828203905092915050565b6000611c98826110b1565b9150611ca3836110b1565b9250817fffffffffffffffffffffffffffffffffffffffffffffffffffffffffffffffff0483118215151615611cdc57611cdb61179f565b5b828202905092915050565b6000602082019050611cfc60008301846112d5565b92915050565b7f4e487b7100000000000000000000000000000000000000000000000000000000600052602260045260246000fd5b60006002820490506001821680611d4957607f821691505b60208210811415611d5d57611d5c611d02565b5b5091905056fea264697066735822122004ae55c4a8f700f89c9d8b5f61ed0aa64f1d98eaf51a666eb402eca8f922579964736f6c63430008090033",
    "linkReferences": {},
    "deployedLinkReferences": {}
}